:1000000045C0000061C000005FC000005DC000008E
:100010005BC0000059C0000057C0000055C0000080
:1000200053C0000051C000004FC000007DC300005D
:100030004BC0000049C0000047C0000045C00000A0
:1000400043C0000041C000003FC000003DC00000B0
:100050003BC0000039C0000037C0000035C00000C0
:1000600033C0000031C000002FC000002DC00000D0
:100070002BC0000029C0000027C0000025C00000E0
:1000800023C0000021C000001FC0000011241FBEBB
:10009000CFEFD0E4DEBFCDBF11E0A0E0B1E0ECE2F5
:1000A000F8E000E00BBF02C007900D92AA37B1073D
:1000B000D9F71BBE11E0AAE7B1E001C01D92AF382D
:1000C000B107E1F798D0B0C39BCFFC011182108239
:1000D00013821282158214821682683068F489E2D3
:1000E00090E0918380838BE290E0938382838AE225
:1000F00090E09583848323C0603180F483E290E0B4
:100100009183808385E290E09383828384E290E010
:100110009583848370E06850704011C06831C0F4EA
:1001200086E290E09183808388E290E093838283EB
:1001300087E290E09583848370E06051704081E0B5
:1001400090E002C0880F991F6A95E2F786830895B0
:100150006032C0F480E290E09183808382E290E09C
:100160009383828381E290E0958384832FE130E062
:10017000261B310981E090E002C0880F991F2A9563
:10018000E2F786830895A7E0B0E0E8ECF0E025C34D
:10019000682FCE01019699DFE981FA8190818F81E4
:1001A00089232796E2E035C3A7E0B0E0E9EDF0E06F
:1001B00014C3682FCE01019688DFED81FE81908106
:1001C0008F81809589238083EB81FC8180819F8151
:1001D000892B80832796E2E01CC3809171018F5F99
:1001E00080937101089580E1CECF8BE0CCCF81E187
:1001F000CACF8CE0C8CF80E1D7DF81E1D5DF8BE0CB
:10020000D3DF8CE0D1DF34D180E060E065D1EBDF7B
:10021000882379F0EADF882331F080E091E03DD156
:10022000CCE9DFEF0BC084E191E037D1C4E6D0E048
:1002300005C087E291E031D1C0E0D0E080E061E02C
:100240004BD1D5DF882379F0D4DF882331F087E3E1
:1002500091E023D184E690E00BC08CE491E01DD1C5
:100260008CE99FEF05C080E691E017D180E090E037
:10027000BE0150D288EC90E09ED2C5CF81E090E0E4
:100280006F9364E06A95F1F76F910197C9F708954C
:100290000F931F93CF93DF9317B13D982898299A16
:1002A000C0E0D0E0EBDF2A9AE9DF06B12A98E6DF6A
:1002B0002A9AE4DF2A98249605FF10C09E0140E0A8
:1002C00050E080917E0190917F01A0918001B091DA
:1002D0008101281739074A075B0720F39E0140E098
:1002E00050E080917E0190917F01A0918001B091BA
:1002F0008101281739074A075B0728F082E390E05D
:10030000A0E0B0E004C080E395E7A0E0B0E0809317
:100310007E0190937F01A0938001B093810117B972
:10032000DF91CF911F910F91089528B190E08F70C8
:100330009070880F991F880F991F237C282B28B94C
:100340002A9A9CDF2A989ACFA2E0B0E0E9EAF1E08D
:1003500041C2182F4A83698357D09ADFF7B008B19A
:10036000299869814A81662311F0289A01C028984A
:1003700087B18C6387B9413021F0812F82958F70CE
:10038000D4DF812F8F70D1DFF7B808B92296E5E06E
:100390003DC260E042E0D8CF61E042E0D5CF60E00E
:1003A00041E0D2CF3D98459A80E395E7A0E0B0E0E8
:1003B00080937E0190937F01A0938001B09381018F
:1003C000209A219A229A8EE190E0F5D183E0E7DF2E
:1003D00086E090E0F0D183E0E2DF82E090E0EBD1D4
:1003E00083E0DDDF82E090E0E6D182E0D8DF82E0EA
:1003F00090E0E1D188E2CDDF88E0CBDF81E0C9DFAA
:1004000086E0C7DF8CE0C5CF80918201882321F48C
:1004100081E080938201C6CF089581E0BADF8091A8
:100420007A0190917B01009711F1A0E0B0E208C041
:10043000E0917A01F0917B01E20FF31FB083AF5F8F
:100440002A2F30E08091720190E001976091730152
:1004500070E0869FA001879F500D969F500D11243C
:10046000241735072CF310927D0110927C0108951A
:10047000D4CF0895EF92FF92CF93DF93E82EE70158
:100480007E01F92EE70101C087DF89918823E1F71A
:10049000DF91CF91FF90EF900895ECCF0895A5E004
:1004A000B0E0E4E5F2E098C1182F80E8898380ECA1
:1004B0008A8384E98B8384ED8C83FE01E60FF11D32
:1004C0008181810F6D8365DF10937D016D81609364
:1004D0007C012596E3E09CC1E2CF0895FC011182E6
:1004E000108213821282158214821682683068F498
:1004F00089E290E0918380838BE290E09383828312
:100500008AE290E09583848323C0603180F483E2A3
:1005100090E09183808385E290E09383828384E2FC
:1005200090E09583848370E06850704011C068311A
:10053000C0F486E290E09183808388E290E0938328
:10054000828387E290E09583848370E060517040FD
:1005500081E090E002C0880F991F6A95E2F78683D8
:1005600008956032C0F480E290E09183808382E25B
:1005700090E09383828381E290E0958384832FE1EE
:1005800030E0261B310981E090E002C0880F991FFE
:100590002A95E2F786830895FC01A481B5818681BE
:1005A000662321F09C91982B9C9308959C918095B3
:1005B00089238C930895FC016F3F31F4A281B381AC
:1005C0008C91968189270CC0A281B3818681662394
:1005D00021F09C91982B9C9308959C918095892360
:1005E0008C930895A7E0B0E0E7EFF2E0F3C0282F86
:1005F000F62E8E010F5F1F4FC801622F6FDFC801FB
:100600006F2DD9DFC80161E0C7DF2796E5E0FEC0A6
:1006100083E08093B00082E08093B100E4EBF0E0EF
:10062000108280818093B30087E160E0DBDF86E1A8
:1006300060E0D8DF87E060E0D5DF86E060E0D2CF21
:1006400080918301882321F481E080938301E0CFAE
:100650000895CF93DF93EC01F3DFD7FF05C0D0956A
:10066000C195DF4F91E001C090E0CF3FD10519F077
:1006700014F0CFEFD0E0C093B300209731F4809115
:10068000B0008F778093B0000DC08091B00080687B
:100690008093B000992319F087E161E002C087E1FF
:1006A00060E0A0DFDF91CF910895CF93DF93EC015D
:1006B000C7DFD7FF05C0D095C195DF4F91E001C0DE
:1006C00090E0CF3FD10519F014F0CFEFD0E0C09308
:1006D000B400209731F48091B0008F7D8093B000FA
:1006E0000DC08091B00080628093B000992319F012
:1006F00086E161E002C086E160E074DFDF91CF91C6
:100700000895CF93DF93EB01A4DFCE01CEDFDF911D
:10071000CF910895F6CF08956F9364E06A95F1F74D
:100720006F910197C9F708952F928F939F932FB6DA
:100730008091850190918601019680938501909327
:10074000860190E080918701891F809387019091B5
:100750008D019C5F90938D0180918C018051974217
:10076000C0F090938D0180938C01809188019091CD
:1007700089010196809388019093890190E080918E
:100780008A01891F80938A0180918B01891F809340
:100790008B012FBE9F918F912F901895CF93DF9350
:1007A000EC0104C088EE93E0B7DF21972097D1F7E2
:1007B000DF91CF910895F2CF08952F923F924F92FB
:1007C0005F926F927F928F929F92AF92BF92CF92E1
:1007D000DF92EF92FF920F931F93CF93DF93CDB7EA
:1007E000DEB7CA1BDB0B0FB6F894DEBF0FBECDBF62
:1007F00009942A88398848885F846E847D848C8433
:100800009B84AA84B984C884DF80EE80FD800C813B
:100810001B81AA81B981CE0FD11D0FB6F894DEBF1E
:0C0820000FBECDBFED010895F894FFCF8E
:10082C004C656674204D6F746F72205265766572DC
:10083C00736564004C656674204D6F746F7220464E
:10084C006F7277617264004C656674204D6F746FC3
:10085C00722053746F70005269676874204D6F7406
:10086C006F722052657665727365640052696768B1
:10087C0074204D6F746F7220466F727761726400D2
:10088C005269676874204D6F746F722053746F7067
:0A089C000001021000008F0120008F
:00000001FF
